:100000000A128A11F32F01300A128A15A2270A1246
:100010008A1108000A128A153E270A128A118316CD
:10002000031391150A128A153E270A128A118312A8
:1000300003131308F200F3017208F4007308F500CB
:100040000A128A153E270A128A1170037104031DD1
:100050002A282B282F28831603139112322883165F
:100060000313911611167508F1007408F0000800CA
:100070002830831203139400831603139101831213
:1000800003134408C8004508C9004608CA004708C9
:10009000CB0002300310C80DC90DCA0DCB0DFF3EB9
:1000A000031D4A284B08F3004A08F2004908F100F2
:1000B0004808F0000030F7007A30F6001230F50002
:1000C0000030F4000A128A11B9210A128A1170084C
:1000D000FF3E83160313930094018715071608004B
:1000E00078087904031975287628A528FD01FD0AEA
:1000F000842801300310F80DF90DFF3E031D7A2806
:100100000130FC007C08FD07F91F87288828792822
:1001100079087B02031D8E2878087A02031C912837
:10012000922898287808FA027908031CFB03FB023E
:1001300001300310F90CF80CFF3E031D9928013023
:10014000FD02031DA428A52888287B08F9007A0849
:10015000F8000800F000701CAE28AF28B328831206
:1001600003130614B628831203130610F01CB928D3
:10017000BA28BC288614BD288610701DC028C12846
:10018000C3280615C4280611F01DC728C828CA2888
:100190008615CB288611701ECE28CF28D1280616AA
:1001A000D2280612F01ED528D628D8288616D92897
:1001B0008612701FDC28DD28DF280617E0280613CA
:1001C000F01FE328E428E6288617E72886130800AE
:1001D000F801F9010D2978087307F6007408F50095
:1001E0000318F50AF81FF528F5037508F7007708D6
:1001F00083120313FF00760884000A128A15002078
:100200000A128A110A128A1574270A128A110130F9
:10021000F8070318F90A0030F90778087307F600A1
:100220007408F5000318F50AF81F1729F503750877
:10023000F700770883120313FF00760884000A1280
:100240008A1500200A128A11003A031D282929293B
:10025000EB280800F501F601700871040319312933
:1002600032296929F701F70A402901300310F00DFE
:10027000F10DFF3E031D36290130F4007408F70725
:10028000F11F43294429352901300310F50DF60DDE
:10029000FF3E031D452971087302031D5129700893
:1002A0007202031C542955295C297008F202710856
:1002B000031CF303F302751401300310F10CF00C6E
:1002C000FF3E031D5D290130F702031D68296929DE
:1002D00044297608F1007508F000080000300A1281
:1002E0008A11AA200A128A113430F500F130F40084
:1002F000F40B7829F50B78297D2903300A128A1529
:10030000A2270A128A110D30F500FB30F400F40B1D
:100310008729F50B87298C2903300A128A15A22711
:100320000A128A111D30F5009130F400F40B962961
:10033000F50B962903300A128A15A2270A128A1190
:1003400038300A128A15A2270A128A110C300A12B2
:100350008A15A2270A128A1101300A128A15A227C9
:100360000A128A1106300A128A15A2270A128A1165
:1003700008000030FC000030FB000030FA000030C4
:10038000F90073087204710470040319C829C9299B
:10039000162AFD01FD0AD9290130F8000310F00DDD
:1003A000F10DF20DF30DF80BCE290130F8007808AD
:1003B000FD07F31FDC29DD29CC290130F8000310EB
:1003C000F90DFA0DFB0DFC0DF80BDF297308770210
:1003D000031DF42972087602031DF42971087502C1
:1003E000031DF42970087402031CF729F829072A51
:1003F0007008F4027108031C710FF5027208031CE7
:10040000720FF6027308031C730FF70279140130A0
:100410000310F30CF20CF10CF00CFF3E031D082A44
:100420000130FD02031D152A162ADD297C08F30080
:100430007B08F2007A08F1007908F0000800F80063
:100440000A128A1522270A128A11D030F2000030CF
:10045000F3000A128A1534270A128A110030F200BA
:10046000F3000A128A1534270A128A1175080A1233
:100470008A154B270A128A11F600F7017608F20056
:100480007708F3000A128A1534270A128A110A1211
:100490008A152B270A128A110A128A1522270A1294
:1004A0008A11D030F2000030F3000A128A15342786
:1004B0000A128A110130F2000030F3000A128A1584
:1004C00034270A128A1174080A128A154B270A1255
:1004D0008A11F600F7017608F2007708F3000A1295
:1004E0008A1534270A128A110A128A152B270A1232
:1004F0008A110A128A1522270A128A11D030F200B4
:100500000030F3000A128A1534270A128A110230C9
:10051000F2000030F3000A128A1534270A128A11F9
:1005200078080A128A154B270A128A11F600F70179
:100530007608F2007708F3000A128A1534270A12A7
:100540008A110A128A152B270A128A110800F8004C
:100550000A128A1522270A128A11D030F2000030BE
:10056000F3000A128A1534270A128A110430F200A5
:100570000030F3000A128A1534270A128A1178080B
:100580000A128A154B270A128A11F600F70176081B
:10059000F2007708F3000A128A1534270A128A112A
:1005A0000A128A152B270A128A110A128A15222783
:1005B0000A128A11D030F2000030F3000A128A15B4
:1005C00034270A128A110530F2000030F3000A12B3
:1005D0008A1534270A128A1174080A128A154B27C1
:1005E0000A128A11F600F7017608F2007708F30084
:1005F0000A128A1534270A128A110A128A152B2721
:100600000A128A110A128A1522270A128A11D03078
:10061000F2000030F3000A128A1534270A128A11F8
:100620000630F2000030F3000A128A1534270A124D
:100630008A1175080A128A154B270A128A11F600C8
:10064000F7017608F2007708F3000A128A153427BA
:100650000A128A110A128A152B270A128A11080017
:1006600083120313CF004530CA00F52B2530500606
:1006700003193B2B3C2B462B4F0884005008831357
:1006800080000130C7004708CF07F52BCB010130B0
:10069000C407FF30440784000A128A150A200A1290
:1006A0008A11D000C700C8014808003A0319592B25
:1006B000F52B4708003A0319052C643A0319642BFB
:1006C0000D3A0319642BF52B4A08840083130008A4
:1006D000CD00840A0008CE000230C7004708CA07D0
:1006E000CE1F732B742B7D2B0330C7004708CB0420
:1006F000CD09CE09CD0A0319CE0AD001D00A50087F
:10070000C7004707013E84000A128A150A200A1210
:100710008A11C8000A128A150A200A128A11C90011
:1007200049084E02031D962B48084D020318992BC9
:100730009A2B9B2BA52B0130C7004708D00705300B
:100740005006031DA42BA52B7F2B4B08033903193F
:10075000AA2BAB2BB42B4F0884002D3083138000C1
:100760000130C7004708CF075008CC00EC2B0A30F7
:10077000F8000030F9004C08C7004707013E84002C
:100780000A128A150A200A128A11F0000A128A1522
:100790000A200A128A11F1004E08F3004D08F200F7
:1007A0000A128A112A210A128A117108FB007008A4
:1007B000FA000A128A1170200A128A117808303E53
:1007C00083120313D0004F08840050088313800065
:1007D0000130C7004708CF07FF30C7004708CC07E4
:1007E0004C0A031DF42BF52BB72B0130C407FF3047
:1007F000440784000A128A150A200A128A11D000BE
:100800005008031D042C052C362B4F08840083133D
:10081000800108000A128A15DC270A128A110F309B
:10082000F400F50101300A128A111F220A128A11FE
:100830000830F4001730F50009300A128A11A72297
:100840000A128A110A128A116E210A128A110A12D8
:100850008A1103200A128A11F401F40A01300A12E3
:100860008A15BC270A128A110B30F3008030F4007D
:100870000A128A11E8200A128A110A128A152227FE
:100880000A128A111130F2000030F3000A128A15A0
:1008900034270A128A110030F000F1000A128A117E
:1008A0000A200A128A11710883120313AD0070081E
:1008B000AC000A128A152B270A128A110330831200
:1008C0000313D3000830D2007630D100D10B662C50
:1008D000D20B662CD30B662C00000A128A15222735
:1008E0000A128A11D030F2000030F3000A128A1581
:1008F00034270A128A110030F200F3000A128A1516
:1009000034270A128A110A128A1519270A128A1123
:10091000D130F2000030F3000A128A1534270A128F
:100920008A110030F000F1000A128A110A200A121E
:100930008A1170080A128A158A270A128A118312EC
:100940000313D100D2015108AA005208AB000A12C9
:100950008A152B270A128A11033083120313D3003E
:100960000830D2007630D100D10BB42CD20BB42C8D
:10097000D30BB42C00000A128A1522270A128A11FE
:10098000D030F2000030F3000A128A1534270A1220
:100990008A110130F2000030F3000A128A15342760
:1009A0000A128A110A128A1519270A128A11D130DD
:1009B000F2000030F3000A128A1534270A128A1155
:1009C0000030F000F1000A128A110A200A128A117E
:1009D00070080A128A158A270A128A1183120313D1
:1009E000D100D2015108A8005208A9000A128A15A4
:1009F0002B270A128A11033083120313D300083005
:100A0000D2007630D100D10B032DD20B032DD30BA6
:100A1000032D00000A128A1522270A128A11D030EB
:100A2000F2000030F3000A128A1534270A128A11E4
:100A30000230F2000030F3000A128A1534270A123D
:100A40008A110A128A1519270A128A11D130F20066
:100A50000030F3000A128A1534270A128A11003076
:100A6000F000F1000A128A110A200A128A11700895
:100A70000A128A158A270A128A1183120313D100D7
:100A8000D2015108A6005208A7000A128A152B2786
:100A90000A128A11033083120313D3000830D200E4
:100AA0007630D100D10B522DD20B522DD30B522DBB
:100AB00000000A128A1522270A128A11D030F20089
:100AC0000030F3000A128A1534270A128A11043002
:100AD000F2000030F3000A128A1534270A128A1134
:100AE0000A128A1519270A128A11D130F200003031
:100AF000F3000A128A1534270A128A110030F00016
:100B0000F1000A128A110A200A128A1170080A12C8
:100B10008A158A270A128A1183120313D100D2017F
:100B20005108A4005208A5000A128A152B270A12A0
:100B30008A11033083120313D3000830D2007630B9
:100B4000D100D10BA12DD20BA12DD30BA12D0000D3
:100B50000A128A1522270A128A11D030F2000030B8
:100B6000F3000A128A1534270A128A110530F2009E
:100B70000030F3000A128A1534270A128A110A1269
:100B80008A1519270A128A11D130F2000030F300B9
:100B90000A128A1534270A128A110030F000F10077
:100BA0000A128A110A200A128A1170080A128A157A
:100BB0008A270A128A1183120313D100D201510825
:100BC000A2005208A3000A128A152B270A128A11C2
:100BD000033083120313D3000830D2007630D100E3
:100BE000D10BF02DD20BF02DD30BF02D00000A12FB
:100BF0008A1522270A128A11D030F2000030F30041
:100C00000A128A1534270A128A110630F2000030BF
:100C1000F3000A128A1534270A128A110A128A1559
:100C200019270A128A11D130F2000030F3000A129B
:100C30008A1534270A128A110030F000F1000A12D6
:100C40008A110A200A128A1170080A128A158A2744
:100C50000A128A1183120313D100D2015108A00095
:100C60005208A1000A128A152B270A128A11033092
:100C700083120313D3000830D2007630D100D10B99
:100C80003F2ED20B3F2ED30B3F2E00000630F40038
:100C900001300A128A15BC270A128A1110308312F9
:100CA0000313C4002508C6002408C50038300A1202
:100CB0008A1130230A128A11831203132508803AFD
:100CC000FF0080307F02031D672E0A3024020318C4
:100CD0006A2E6B2E712E831203133808B900303040
:100CE000B8003830F3000030F4000A128A11E8200E
:100CF0000A128A110830F40001300A128A15BC2742
:100D00000A128A112F300A128A1574270A128A11C0
:100D10000930F40001300A128A15BC270A128A1120
:100D2000103083120313C4002308C6002208C50034
:100D300035300A128A1130230A128A1183120313E2
:100D40002308803AFF0080307F02031DA92E0A305D
:100D500022020318AC2EAD2EB32E831203133508D6
:100D6000B6003030B5003530F3000030F4000A1220
:100D70008A11E8200A128A110B30F40001300A129D
:100D80008A15BC270A128A112F300A128A15742775
:100D90000A128A110C30F40001300A128A15BC279D
:100DA0000A128A11103083120313C4002108C600EE
:100DB0002008C50032300A128A1130230A128A1123
:100DC0003230F3000030F4000A128A11E8200A12CF
:100DD0008A11F401F40A02300A128A15BC270A1299
:100DE0008A11103083120313C4002D08C6002C088A
:100DF000C5002E300A128A1130230A128A1183127A
:100E000003132D08803AFF0080307F02031D0A2F54
:100E10000A302C0203180D2F0E2F172F83120313E5
:100E20002E08B0003030AF003030AE002E2F8312CD
:100E300003132D08803AFF0080307F02031D222F0C
:100E400064302C020318252F262F2E2F8312031314
:100E50002F08B0002E08AF003030AE002E30F30067
:100E60000030F4000A128A11E8200A128A110630B2
:100E7000F40002300A128A15BC270A128A111030B7
:100E800083120313C4002708C6002608C5003B30A0
:100E90000A128A1130230A128A11831203132708B7
:100EA000803AFF0080307F02031D582F0A3026024F
:100EB00003185B2F5C2F622F831203133B08BC00C7
:100EC0003030BB003B30F3000030F4000A128A11CE
:100ED000E8200A128A110830F40002300A128A153A
:100EE000BC270A128A113A300A128A1574270A128C
:100EF0008A110930F40002300A128A15BC270A123E
:100F00008A11103083120313C4002908C600280870
:100F1000C5003E300A128A1130230A128A11831248
:100F200003132908803AFF0080307F02031D9A2FA7
:100F30000A30280203189D2F9E2FA42F831203131B
:100F40003E08BF003030BE003E30F3000030F400F9
:100F50000A128A11E8200A128A110B30F4000230BA
:100F60000A128A15BC270A128A113A300A128A1507
:100F700074270A128A110C30F40002300A128A1502
:100F8000BC270A128A11103083120313C4002B08E5
:100F9000C6002A08C50041300A128A1130230A12FD
:100FA0008A11831203132B08803AFF0080307F02DE
:100FB000031DDC2F0A302A020318DF2FE02FE62F53
:100FC000831203134108C2003030C1004130F300E6
:100FD0000030F4000A128A11E8200A128A113D2C0E
:100FE0000A128A11002883132030840044300A1228
:100FF0008A1511270A128A1183010A128A110A2CF2
:10100000FF1B0A2883137F1883170008840A03191B
:10101000FF0A080008308A000408840A82070034A6
:10102000013400340A34003464340034E8340334C6
:101030001034273450344F34543431340034253490
:0410400064340034E0
:101E220064008001840A0406031900340406122F98
:101E32000A128A153E270A128A1583160313911471
:101E420008000A128A153E270A128A1583160313FE
:101E5200111408000A128A153E270A128A158316DF
:101E62000313111508000A128A153E270A128A1551
:101E720072088312031393000800831603131419C4
:101E8200432F442F3E2F11081F39031D492F4A2F7C
:101E92003E2F0800F000F1010A307002031C522F9D
:101EA200532F5A2F7008F63EF0007108103EF100D1
:101EB2004D2F70087107F10071080800F300F2015C
:101EC200731C642F652F692F7008F1007108F207E7
:101ED2000310F00D0310F30C7308031D712F722F02
:101EE200612F72080800F2008312031308177208A8
:101EF2000A128A11AA200A128A158312031388175A
:101F02001A30F100F10B832F0000831203138813A0
:101F12000800F7000F307705F4000A30F000770868
:101F2200F50004300310F50CFF3E031D932F7508D6
:101F32000A128A155F270A128A157407F6007608B4
:101F42000800F30083120313081373080A128A119C
:101F5200AA200A128A158312031388170B30F20083
:101F62006230F100F10BB32FF20BB32F000083129A
:101F7200031388130800F5007503031DC12FC22F38
:101F8200CC2F74087F3EF60076080A128A15A22723
:101F92000A128A15DB2F02307506031DD12FD22FAC
:101FA200DB2F7408BF3EF60076080A128A15A227B4
:101FB2000A128A1508007130831603138F0000304D
:101FC20083120313C7000130C6008630C500A0305B
:101FD200C4000A128A1138200A128A1583160317BE
:101FE200880189018316031385018601880189010D
:0E1FF20083120313850186018801890108000E
:08400000FF3FFF3FFF3FFF3FC0
:04400E00D620FF3F7A
:00000001FF
