:060000000A128A110C280F
:10000800FE00030EF5000A08F6000A128A11EB2812
:100018000A128A110F28F701F80183010A128A11BE
:1000280080294130831203139F00831603139F0115
:100038008316031788018901B72883160317081444
:10004800831603130514EA281F08C33904389F00D0
:10005800831603178814831603138514EA281F08C8
:10006800C33908389F00831603170815831603132E
:100078000515EA281F08C3390C389F008316031793
:100088008815831603138515EA281F08C339103805
:100098009F00831603170816831603138516EA288C
:1000A8001F08C33914389F00831603178816831650
:1000B80003130914EA281F08C33918389F00831648
:1000C80003170817831603138914EA281F08C3396E
:1000D8001C389F0083160317881783160313091506
:1000E800EA281F08C33920389F008316031709140C
:1000F800831603130615EA281F08C33924389F00FE
:10010800831603178914831603138615EA281F0814
:10011800C33928389F00831603170915831603135C
:100128008614EA281F08C3392C389F008316031742
:100138008915831603130616EA281F08C3393038B1
:100148009F00831603170916831603130614EA285B
:100158001F08C33934389F0083160317891683167E
:1001680003138616EA28831203132108003A031999
:10017800BE28EA282008003A03192128013A031961
:100188002828033A03193328013A03193E28073A65
:1001980003194928013A03195428033A03195F2817
:1001A800013A03196A280F3A03197528013A031905
:1001B8008028033A03198B28013A03199628073A2D
:1001C8000319A128013A0319AC28EA280800831268
:1001D80003130C1FF028F128F8280A128A11B821F5
:1001E8000A128A117008F700831203138C1DFD2868
:1001F800FE284B291412141B022903290729941FCE
:10020800062907290C291308F80014139413141647
:1002180083160313941A112912292C291419152944
:1002280016292C29831203131308F8008C111416AD
:1002380083160313141C212922291C298312031352
:1002480013088800A630F400F40B282900004B2975
:10025800941A2F2930294B29141D332934294B2965
:10026800831203131308F800831603131410770876
:100278008312031393001416A630F400F40B4229DA
:1002880000008316031314184A294B2945298312A1
:1002980003130C138C1176088A00750E8300FE0E6A
:1002A8007E0E09007130831603138F00C0308B0057
:1002B80050308C00831203138C01831603138101C1
:1002C800003083120313A000A1000A128A1115201E
:1002D8000A128A1110300A128A119C210A128A11F4
:1002E800831603138601880189018312031385018C
:1002F80086018801890108000A128A1156210A120A
:100308008A11831203139F188A298B2985290D3096
:1003180083120313A300FB30A200A20B9129A30BA5
:100328009129831203139F1485290A128A110C2814
:1003380083120313A000200883160313930036309A
:100348008312031394008030831603139400013042
:100358009100871507168B170B17831203138C113F
:10036800831603138C150800831203131E08F2006A
:0C037800F3017208F0007308F1000800A7
:08400000FF3FFF3FFF3FFF3FC0
:04400E00D620FF3F7A
:00000001FF
